:020000041004E6
:1000000000600020C9060410590604105B060410A5
:10001000AA5555AA45554C420000000000000000BA
:100020000000000000000000000000005D06041059
:100030000000000000000000750604105F060410B8
:10004000670604107706041000000000000000009E
:1000500069060410790604106B0604108506041066
:100060000000000000000000000000000000000090
:100070000000000087060410890604108B06041097
:10008000000000007B0604107D0604107F060410AB
:100090008106041083060410730604108D060410F4
:1000A0000000000000000000000000000000000050
:1000B0000000000000000000000000000000000040
:1000C000F0B543464C4655465E466746F8B40E4C7E
:1000D0006B4623600D4C20680D4C20600D4C206851
:1000E0000D4C20600D4C20680D4C2060BFF34F8FED
:1000F00030BF054C2468A546F8BC9846A146AA46E0
:10010000B346BC46F0BDC0460800002004ED00E048
:100110007417002024ED00E06817002000E200E0E2
:1001200078170020002243088B4274D303098B42C6
:100130005FD3030A8B4244D3030B8B4228D3030CB7
:100140008B420DD3FF22090212BA030C8B4202D359
:100150001212090265D0030B8B4219D300E0090A81
:10016000C30B8B4201D3CB03C01A5241830B8B428A
:1001700001D38B03C01A5241430B8B4201D34B0373
:10018000C01A5241030B8B4201D30B03C01A5241D8
:10019000C30A8B4201D3CB02C01A5241830A8B425D
:1001A00001D38B02C01A5241430A8B4201D34B0246
:1001B000C01A5241030A8B4201D30B02C01A5241AA
:1001C000CDD2C3098B4201D3CB01C01A524183095E
:1001D0008B4201D38B01C01A524143098B4201D398
:1001E0004B01C01A524103098B4201D30B01C01AC3
:1001F0005241C3088B4201D3CB00C01A524183083D
:100200008B4201D38B00C01A524143088B4201D369
:100210004B00C01A5241411A00D2014652411046C9
:100220007047FFE701B5002000F0F0F802BDC046BE
:100230000029F7D076E7704703460B437FD40022AE
:1002400043088B4274D303098B425FD3030A8B426A
:1002500044D3030B8B4228D3030C8B420DD3FF22D4
:10026000090212BA030C8B4202D31212090265D0A2
:10027000030B8B4219D300E0090AC30B8B4201D355
:10028000CB03C01A5241830B8B4201D38B03C01A9C
:100290005241430B8B4201D34B03C01A5241030B13
:1002A0008B4201D30B03C01A5241C30A8B4201D3C4
:1002B000CB02C01A5241830A8B4201D38B02C01A6F
:1002C0005241430A8B4201D34B02C01A5241030AE6
:1002D0008B4201D30B02C01A5241CDD2C3098B42CB
:1002E00001D3CB01C01A524183098B4201D38B0148
:1002F000C01A524143098B4201D34B01C01A5241EB
:1003000003098B4201D30B01C01A5241C3088B422F
:1003100001D3CB00C01A524183088B4201D38B001A
:10032000C01A524143088B4201D34B00C01A5241BC
:10033000411A00D201465241104670475DE0CA0F93
:1003400000D04942031000D34042534000229C4653
:1003500003098B422DD3030A8B4212D3FC2289015D
:1003600012BA030A8B420CD3890192118B4208D333
:10037000890192118B4204D389013AD0921100E095
:100380008909C3098B4201D3CB01C01A52418309A9
:100390008B4201D38B01C01A524143098B4201D3D6
:1003A0004B01C01A524103098B4201D30B01C01A01
:1003B0005241C3088B4201D3CB00C01A524183087B
:1003C0008B4201D38B00C01A5241D9D243088B42D1
:1003D00001D34B00C01A5241411A00D20146634674
:1003E00052415B10104601D34042002B00D54942D8
:1003F000704763465B1000D3404201B5002000F017
:1004000005F802BD0029F8D016E770477047C046CE
:100410008446101C62468C46191C634600E0C046A8
:100420001FB506F055FE002801D40021C8421FBDAB
:1004300010B506F0ADFD4042013010BD10B506F01C
:1004400047FE002801DB002010BD012010BDC04682
:1004500010B506F03DFE002801DD002010BD012092
:1004600010BDC04610B506F0CFFD002801DC00200D
:1004700010BD012010BDC04610B506F0C5FD002816
:1004800001DA002010BD012010BDC046002B11D1A3
:10049000002A0FD1002900D1002802D00021C94331
:1004A000081C07B4024802A14018029003BDC046D0
:1004B0005DFFFFFF03B4684601B5029805F07CFEBE
:1004C000019B9E4602B00CBC7047C0461C21012314
:1004D0001B04984201D3000C10391B0A984201D327
:1004E000000A08391B09984201D30009043902A205
:1004F000105C40187047C04604030202010101016C
:10050000000000000000000010B5002903D1FFF733
:10051000DDFF203002E0081CFFF7D8FF10BDC04609
:100520001FB50421012007F01EFD011E03D0134852
:1005300000F062FEFEE707F012FD011E15D0104824
:1005400000F05AFE0E236B44019303AB00930A2381
:1005500000216B440822012007F0C8FC011E08D0CE
:10056000084800F049FE05B000BD074800F0A6FEAF
:10057000E8E7064800F0A2FEF5E7C046C8600510AF
:10058000F7600510366105101961051057610510F7
:1005900010B58CB000F0D8F900F02CFBE12040023F
:1005A00000F068FA214807F027FD041E04D001007E
:1005B0001F4800F021FEFEE7FFF7B2FF0A221D49A7
:1005C00009A800F039FD210020000AF0F2FB041E0A
:1005D0000AD00100184800F00FFE1849184800F032
:1005E0000BFE07F0C5FCFCE7164800F067FEA022F2
:1005F00006941100059404940394029401940094C9
:100600002300032007F08AFC011E0F48E3D10F48A6
:1006100000F054FE09A90A200AF0C0FB011E01D017
:100620000B48D8E70B4800F049FED6E79460051068
:100630007361051070600510A4610510AB620510B0
:10064000B1620510D2610510FB610510286205102A
:1006500050620510806205107047FEE7704710B5C4
:1006600000F074FC10BD7047704710B50BF048F9EE
:1006700010BD7047704770477047704770477047AC
:100680007047704770477047704770477047000069
:10069000002210B5084B1A60084B1B7A934209D10F
:1006A000074B1B89052B05D9064B01321A70FFF742
:1006B00020FDFEE7012010BD140000200000904046
:1006C000000010480C00002070B5FFF7E1FF012882
:1006D0001ED0154B83F30888FFF75AFF70BDE5580D
:1006E000043315601A188A42F9D300230F481049C1
:1006F000104C1A188A4210D300210F4B0F4A934214
:100700000FD300210E4B0F4A9342E2D202C3FBE704
:1007100000230D480D490E4CE4E7E55804331560FD
:10072000E7E702C3EBE7C0460060002008000020B6
:1007300034000020DC680510C0000020CC0200203E
:10074000CC020020A4170020A81700209C21002024
:1007500008690510002210B5104B995CC9B2002938
:1007600017D11C2A14D8022021249854501C1C5440
:10077000901C193C1C54901D19549B1880229021E8
:100780009BB252021343C905CB60CB681342FCD124
:1007900010BD995C01315218D2B2DEE7000300208F
:1007A0000023F0B5144AD45CE4B2002C1ED1192BFE
:1007B0000FD802253B275E1CD55497555E199055DE
:1007C000DE1C955535261D1D56555D1D06335155AC
:1007D000D45402223B24094B1A705C709870DA7072
:1007E00033321A71002259719A71F0BDD45C013410
:1007F0001B19DBB2D7E7C046000300206C170020AE
:1008000070B58AB003AC05000E00192244492000DF
:1008100000F012FC684600F0A1FB002D62D04423DA
:10082000404AA373117A433B0B4313724C23E37288
:100830002C3B237292336374573B23753A4B3B4AEC
:100840001B68190C914208D17020E17D1B01814386
:10085000E175E17D03400B43E375354B1B68190CD3
:10086000914208D1302061791B0181436171617926
:1008700003400B4363712F4B1B68190C914207D146
:100880000321E27D0B408A43E275E27D1343E37569
:100890000422E37A69469343E3726B465B78897876
:1008A00093400B43112B08DDE37D1A43E275E07A98
:1008B000E17DC0B2C9B2FFF773FF80239022240408
:1008C000240C5B021C43D205D460D1681942FCD1D0
:1008D0006B466A465B7892781B011343112B01DD4E
:1008E000FFF738FF144B1A8B002AFCD001221A8321
:1008F00016329A8100221A61964207D09023102165
:10090000DB0518691A6942400A42FBD0002D02D06B
:1009100015220A4B1A700A4B0A4A1A600AB070BDB7
:100920007A60051000002040E807001055AA00007A
:10093000E4070010B0070010000010480000C0409D
:1009400014000020CCBCECFC0822F8B5C027C02164
:100950003B4B3C4D9A803C4A3F04136A09062B40AE
:100960003B431362136AFF271B021B0A0B431362EC
:10097000C02292009446C020344B64469A58344EAC
:10098000BA430243C0201A511A59000232400243AE
:100990001A51C12292009C58BC433F3F3C439C509B
:1009A0009C58C027344004439C509C583F042C4022
:1009B0009C509C582402240A0C439C5008329446B4
:1009C00064469A58324002431A511A592A403A430F
:1009D0001A511A591202120A0A431A51C4229200D9
:1009E000944664469A58324002431A511A592A4092
:1009F0003A431A511A591202120A0A431A51C522CD
:100A000092009C582700FF24A7433F3C2743C02463
:100A10009F509F5824043E403043985098580540BA
:100A20002C439C5098580002000A01439950012120
:100A30000800FFF7E5FE074B074A1A6262B6F8BDE9
:100A400000001040FFFF00FF00ED00E000E100E0CB
:100A5000FF00FFFF0000904066000E0010B504008C
:100A6000202000F057FA0128FAD0A0B200F04AFA8C
:100A700010BD000070B5012186B00600092000F00D
:100A80007FF900F0BDF81B4B01388000C3580025EA
:100A9000019300F0B5F8184B0138800001ACC35841
:100AA00020002371A571657100F0E8F800F0A8F846
:100AB000124B01388000C358019300F0A1F8104B8D
:100AC00001388000C3582000237100F0D7F80D4B87
:100AD00001240493032303A803818472039600F086
:100AE00069F9280000F024FA200000F055F906B05A
:100AF00070BDC046F0620510EC620510E86205109A
:100B0000E46205100303000001000A4A0A4810B518
:100B10001368046801209C4209D00848C05C013376
:100B2000087080210020C9008B4201D0136010BDE5
:100B30001060FCE72407002020070020200300208D
:100B4000094B02001968002901D108491960186889
:100B5000074982188A4205D90C220120054B4042E0
:100B60001A6070471A60FCE7281700202807002049
:100B7000281700207C170020012040427047802366
:100B80009B0100204B607047012070470020704798
:100B900070B50E0015000C00A31B9D4201DC28005F
:100BA00070BD2078FFF75AFF0134F5E770B50E00ED
:100BB00015000024AC4208D23019FFF7A5FF002829
:100BC00001D10134F6E7002CF4D0200070BD10B53F
:100BD00000F032FA10BD10B500F02EFA10BD10B5BD
:100BE0000A00002100F0BAFA10BD10B5FFF7F7FFB8
:100BF00010BD00000122014B1A7070472C17002015
:100C0000014B1878C0B270472C170020024A138A93
:100C1000DB07FCD57047C04600001040084B10B5FC
:100C20001A68084B9A4209D13F22074B40061A81A5
:100C3000000C2E3A98611A80FFF7E8FF10BDC046FD
:100C400014000020CCBCECFC00001040084B10B598
:100C50001A68084B9A4209D13F22074B80081A8133
:100C60000C3A986119641A80FFF7D0FF10BDC04696
:100C700014000020CCBCECFC000010400379F7B558
:100C80000468002B2DD18022D2055368A343536002
:100C9000802100220F26C90523000125D3402B42C5
:100CA0000DD00379D5B20193072A23D833009700DA
:100CB000BB40CD6A9D43019BBB402B43CB620132BD
:100CC0001A2AE9D180234279DB05012A3ED1DA686C
:100CD0002243DA608279012A3BD19A6814439C60EE
:100CE000F7BD062BD4D1002380220371D2055368AF
:100CF0002343CCE72F00083F072F0BD8174B0D6B72
:100D0000D7183300BF00BB409D43019BBB402B4322
:100D10000B63D4E7103D072D0BD8114B4D6BD71843
:100D20003300BF00BB409D43019BBB402B434B6343
:100D3000C5E70C4B0D8FD7183300BF00BB409D4358
:100D4000019BBB401D43ADB20D87B8E7DA68A243F3
:100D5000BFE79A68A2439A60C2E7C046F8FFFF3F28
:100D6000F0FFFF3FE8FFFF3FC02380221B061978FA
:100D700052420A437F211A701A780A401A7070474B
:100D8000044B1A6A012902D110431862704782434A
:100D90001A62FBE700009040054B0122196B002806
:100DA00002D00A431A63704791431963FBE7C046B8
:100DB00000003040F8B54A4C0500236B01681B0762
:100DC00000D56DE009014748FFF7ACF9C3099AB2B5
:100DD000A284454ADB0101301340C01A400880B2AA
:100DE0003F2802D93F233F381840032760263F4B56
:100DF000C0B218703E4B2A7918783A405201B0437D
:100E00001043187001206979227F39404901B243AB
:100E10000A432277AA7919780240BA400730814301
:100E200011431970217F81430A432277EA79002A0E
:100E300038D102211A788A431A70227F8A4301200E
:100E400022772A7A216B1600C2402A4F064076028A
:100E5000394031432163216B274E02403140120259
:100E60000A432263697A226B0E00C140234F064079
:100E70003A40B60332432263226B214E0140324096
:100E8000C90311432163AA7A197802400F30120175
:100E9000814311431970237F83431A432277F8BD9E
:100EA000C90090E7022A0CD1042019781143197067
:100EB000197881431970217F0A432277227F824368
:100EC000BDE702211A780A431A70042218781043E9
:100ED0001870207F01432177217F0A43AFE7C04686
:100EE000000030400000127A80FF7F002800304070
:100EF0002C003040FFFDFFFFFFFEFFFFFFBFFFFFA5
:100F0000FF7FFFFF024BC005C00D18807047C04631
:100F100000003040054B002805DA5B681840431E8E
:100F20009841C0B270471B8BF8E7C04600003040C4
:100F30000722024038200449D2000B78834318006E
:100F4000104308707047C04634003040024A1368AE
:100F5000013313607047C046301700200E4AD36932
:100F60001B061B0F4370D9B2D3690C4A1B071B0F1A
:100F700083700B4B1B68436093420BD102230370B9
:100F8000002901D101234370064B9B8A01339B004A
:100F9000836070470123F2E70000904041A0000207
:100FA0002800904000001040F0B5070085B001AC6B
:100FB0000E0020001500FFF7D1FF23783B70637807
:100FC0003370A3782B7005B0F0BD10B500F034F885
:100FD00010BD10B500F0C2F810BD10B500F006F855
:100FE00010BD000010B500F06BF810BD30B5032A3D
:100FF0001CD903000B439B070FD004780B789C424D
:1010000017D1012305E0C45C5D1CCB5C9C4210D170
:101010002B009342F7D1002030BD03680C68A34237
:10102000EBD1043A04300431032AF6D8002AE4D183
:10103000F1E7E01AF0E7C046F0B50F2A37D90D0006
:1010400005430C000300AD0735D11500103D2D09F7
:101050002E013618103627681F6067685F60A76822
:101060009F60E7681034DF601033B342F3D10F2480
:1010700001352D01491914404519032C1DD90023B0
:10108000CE58EE500433E61A032EF9D80323043C5D
:10109000A4080134A4001A402D190919002A05D00A
:1010A0000023CC5CEC5401339342FAD1F0BD05002F
:1010B000002AF5D1FAE70500F2E72200F8E7C0467A
:1010C000F0B588420AD98B18984207D2531E002ADD
:1010D00003D0CA5CC254013BFBD2F0BD0F2A09D831
:1010E0000500002AF9D00023CC5CEC540133934274
:1010F000FAD1F2E70D0005430C000300AD0729D13A
:101100001500103D2D092F013F18103726681E606D
:1011100066685E60A6689E60E6681034DE60103324
:10112000BB42F3D10F2401352D0149191440451953
:10113000032C11D90023CE58EE500433E61A032EA7
:10114000F9D80323043CA4080134A4002D1909197B
:101150001A40C6E70500C6E72200C2E7F0B58307DC
:1011600046D0541E002A42D0CEB20200032502E02F
:101170001A00013C3BD3531C16702B42F8D1032CB0
:101180002DD9FF220A40150215432A0415430F2CBE
:1011900016D92700103F3F093E01B4461E001A0031
:1011A00010366644156055609560D5601032B242C5
:1011B000F8D10F2201373F01DB191440032C0ED95F
:1011C000261FB608B700BC461A001F1D674420C280
:1011D000BA42FCD103220136B6009B191440002C00
:1011E00005D0C9B21C19197001339C42FBD1F0BD66
:1011F00014000300C3E7C0460FB400B5064983B02E
:1012000004AB086804CB8168019300F093F803B045
:1012100008BC04B01847C046F417002030B50500DC
:1012200089B008000C0000F053F804AB214A019388
:101230000223069201220293AB6B059001300494C5
:1012400007920390AC68002B25D00C23E25E636EFE
:1012500091B2DB0701D48B0525D580239B01194270
:1012600005D11343A381626E134B134063662800BC
:1012700001AA210003F0E0F9454268410B254042F4
:10128000636E0540013DDB0702D4A3899B0506D5AB
:10129000280009B030BD280003F054F8D5E7A06D50
:1012A00003F080FBF4E7A06D03F07AFB0C23E25E11
:1012B00091B2D2E7F4620510FFDFFFFF10B5034BD8
:1012C00001001868FFF7AAFF10BDC046F417002000
:1012D00010B5040083070AD00378002B23D0032223
:1012E00002E00378002B1CD001301042F9D10268D3
:1012F0000E4B0F49D31893430B420FD104300268B1
:101300000A4BD31893430B4208D104300268074BB1
:10131000D31893430B42F1D000E001300378002B47
:10132000FBD1001B10BD0020FCE7C046FFFEFEFE07
:1013300080808080F0B5DE46574645464E46E0B593
:10134000D7B08246089190461C000D9303F018FB1D
:10135000036818001B93FFF7BBFF53461A90002B3E
:1013600003D09B6B002B00D1AEE0089A0C23D15E1A
:10137000526E8BB20792D20702D49A0500D4D7E0FE
:1013800080229201134209D10A4308994B6E8A8147
:1013900007930798B14B03404B6693B21A075AD58F
:1013A000089A12690792002A55D01A221A400A2A6E
:1013B00072D02DAB2A9300232AAFBB607B601593BC
:1013C0001C931993149320931E9321931F930B93B3
:1013D0005346C246099353461B782DAE002B00D1CD
:1013E0003BE25446252B02D11CE0252B03D00134CF
:1013F0002378002BF9D15346E51A0FD03360BB6830
:1014000075605B19BB607B6801337B60072B61DC17
:1014100008360B9B9C46AC4463460B932378002B09
:1014200000D11AE2631C9B4600231CAAD37601223A
:1014300052429146002263784D465C460C920792D8
:1014400001341A00203A5A2A01D900F085FC844957
:1014500092008A589746089D5046290001F0B6FD33
:1014600000280DD0089B5A6E0792D20704D49B899E
:101470009B0501D400F067FC01235B420B934FE016
:101480001A22AB891A400A2A93D105E02023079A31
:101490001A4307922378D3E708990E200A5E002AA0
:1014A00087DB4A6E0792D20706D49B0504D48B6D66
:1014B0001800079303F076FA230042460899504635
:1014C00001F040FD0B902BE0504602F03BFF4CE753
:1014D0002378B5E73A000899099804F01DFC002824
:1014E00012D12DAE95E73A000899099804F014FC42
:1014F000002800D1A1E1099B9A46119B002B03D043
:101500001900504602F0AEFF089A9389526E079276
:10151000D20703D49A0501D400F00CFC5B06ABD4CF
:101520000B9857B03CBC90469946A246AB46F0BDDE
:10153000089DAB6D1800079303F032FA0C23E95EA7
:101540008BB21DE7303B00201A0083001B185B00A4
:10155000D0182378611C1A00303A0C00092AF4D9FB
:101560000C900C006DE71393079BA346A9469A06BF
:1015700000D45BE307220D99073191430132944671
:101580008C4462460D924A6809680F920E91002AB7
:1015900009DA0E9C0F9D00226142AA410E910F9222
:1015A0002D221CA9CA76494656AC0122013101D12F
:1015B00000F01CFD80211800884307900E980F99B9
:1015C00005000D4300D070E14946002901D000F02C
:1015D000AFFE002A01D000F0BAFD01321A4013001C
:1015E000109256AA9246002B08D0632330213DAAC0
:1015F000D1541CAA9446843363449A46109A1CAB77
:10160000DB7E0A924A4501DA4A460A92002211928A
:10161000189217921692002B02D00A9A01320A925F
:10162000022207991140884602D00A9A02320A9291
:1016300084220799BC68114012913FD10C9A0A99F3
:10164000551A002D3ADD7B68102D01DC01F024FADB
:10165000044922001D910C000AE0C046FFDFFFFF95
:10166000F8620510A8640510103D0836102D16DD2F
:1016700010211032013334607160BA607B60072B37
:10168000F2DD3A000899099804F046FB002800D0E2
:1016900031E7103DBA687B682DAE102DE8DC1400F0
:1016A0001D9A6419013332607560BC607B60072B42
:1016B00001DD00F0A0FD1CABDB7E0836002B10D056
:1016C0001CAA1B23944663443360012373607B6828
:1016D00001340133BC607B60072B01DD00F06CFC42
:1016E00008364346002B0DD023AB336002237360D2
:1016F0007B6802340133BC607B60072B01DD00F0A6
:1017000068FC0836129B802B01D100F0F9FB4B4698
:10171000109A9B1A9846002B32DD42467B68D54DC5
:10172000102A21DD102291462200444603E0103C9D
:101730000836102C16DD49461032013335607160D1
:10174000BA607B60072BF2DD3A000899099804F033
:10175000E3FA002800D0CEE6103CBA687B682DAED4
:10176000102CE8DCA04614004246444401333560A6
:101770007260BC607B60072B01DD00F094FC0836D2
:10178000079BDB0500D55BE353463360109B9C460B
:1017900073607B6864440133BC607B60072B00DDB1
:1017A0003FE30836079B5B073AD50C9B0A9A9D1AC4
:1017B000002D35DDB04A7B681D92102D1FDD1021F4
:1017C0009146884603E0103D0836102D17DD4A4645
:1017D00032604246103401337260BC607B60072B7C
:1017E000F1DD3A000899099804F096FA002800D033
:1017F00081E6103DBC687B682DAE102DE7DC1D9A9C
:101800006419013324C6BC607B60072B08DD3A00F5
:101810000899099804F080FA002800D06BE6BC68AB
:101820000C9B0A9A934200DA13000B9A94469C444C
:1018300063460B93002C00D055E600237B60119B80
:10184000002B03D01199099802F00CFEDA462DAE58
:1018500053461B78002B00D0C3E5099B9A46BB6812
:10186000002B01D001F0C1F900237B604CE61393FB
:10187000079BA346A9469A0600D413E107210D9AB7
:1018800007328A4301318C46944461460D911168B8
:1018900052680E910F92012200211CA8C176494680
:1018A00056AC013100D085E60793012A00D19EE3B2
:1018B000022A00D15FE30E980F99072356AA9C468F
:1018C0000A969046A24600E0A8464346C2085D1E1E
:1018D0004C076346144322000340CE0830332B707C
:1018E000200031003243EFD10E900F9107995446FA
:1018F0000A9E4246AA46C90700D458E3302B00D1BD
:1019000055E33023023A1370A31A1093924675E6FA
:1019100013935A4BA3461493079BA9469B0600D4E6
:10192000DBE007220D9B07339343013294469C442E
:1019300062465C681B680E930F940D920799CB0763
:101940000CD50E9A0F9B1000184307D0302223AB02
:101950001A70139A5A70022319430791484B079A39
:101960001A401300022297E71393079BA346A94648
:101970009B0600D480E107220D9B0733934301327D
:1019800094469C4462465C681B680E930F940D92CB
:101990003B4B079A1A40130000227DE70D98079AE7
:1019A000036838490E9300230F9302331A43130040
:1019B00023AA11807821021D0D92304AA346149269
:1019C000A9460222139167E7072213930D9BA346B2
:1019D00007339343013294469C4462460D921A6841
:1019E0005B6890461C9201225C0064081993524285
:1019F000254B40462100A94606F08CF9002801D06D
:101A000000F0D9FC0122204B524240462100FEF753
:101A10001FFD002801D000F0CEFC0022002340462C
:101A20001999FEF70BFD002801D000F0B1FD1CABA9
:101A3000DB7E139A472A01DD01F024F8134A92460F
:101A40008022079991437D3A0A92002207911192D0
:101A50000332109200229146189217921692DAE5FC
:101A600023786C2B01D100F004FF10220799114359
:101A70000791E5E4B8640510A864051074640510C6
:101A8000FFFBFFFF30780000FFFFEF7F646405106D
:101A900013931023079AA3461A431300A9469A06E4
:101AA00000D5EBE60D990A1DD80601D500F046FCDD
:101AB000590601D500F059FD990501D400F03DFC0F
:101AC0000D99097800F03BFC1393DC4BA34614936B
:101AD000079BA9469B0600D523E70D9A0799131D7E
:101AE000C90601D500F03BFC079A520601D500F06B
:101AF0003FFD079A920501D400F030FC0D9A0D933A
:101B000012780E9200220F9218E72378682B01D1E9
:101B100000F0A6FE402207991143079190E4099B2B
:101B20001800994602F02CFF436818001F93FFF736
:101B3000CFFB80462190484602F022FF4346826850
:101B40001E92002B00D1C3E42378002A00D177E451
:101B50001278002A00D173E480220799D200114341
:101B600007916DE40D9A2378116804320C910D925F
:101B7000002900DB64E44A420C9205E02B231CAAF6
:101B8000D37623785CE423780422079911430791E4
:101B900056E41CAAD27E2378002A00D050E42032DA
:101BA0001CA9CA764CE40123079A1A4307922378AA
:101BB00046E40D9AA34608CA0D92079A920601D4EC
:101BC00000F066FC0B9ADA461A60D2175A603FE6BC
:101BD0002378601C2A2B01D101F096F91A00303AC3
:101BE00000250100092A00D9BBE42C00A5002D190D
:101BF00003786D00AC181A00411C303A0800092A1D
:101C0000F4D925000C00FFF71CFC8023079A1A4327
:101C100007922378FFF714FC13931023079AA34627
:101C20001A431300A9469A0600D5A3E40D9A111D84
:101C3000D80600D58BE35A0601D500F08DFC9A0535
:101C400000D483E30D9A0D91127852B20E92D217FE
:101C50000F929CE40823079A1A4307922378FFF710
:101C6000EFFB13931023079AA3461A430792079B8F
:101C7000A9469B0600D57EE60D9A0799131DC90655
:101C800000D574E3079A520601D500F079FC079A53
:101C9000920500D46AE30D9A0D9312780E920022F9
:101CA0000F9275E613930D9BA3461C1D1B681CAA7F
:101CB0009A460023D3765346002B01D100F0E8FD6D
:101CC0002B00013301D100F0E1FE2A000021504633
:101CD00003F08CF91190002801D100F088FD5246E4
:101CE000119B991ACA43D2171091114000221CABC4
:101CF000DB7E0A910D9411929146189217921692DA
:101D000089E40D9913930B683DAA137000231CA856
:101D1000C3760B1D0D93A3460123002111910131C0
:101D2000109100210A93894600231891179116916A
:101D3000924675E4089CA36D1800079302F032FEEA
:101D4000A389FFF7EBFB089B986D02F02BFE0123A4
:101D50005B420B93FFF7E4FBA3461393002B00D1E8
:101D60007BE53DAA137000231CA9CB760133D4E791
:101D7000082189467A6815990134531CB144012918
:101D800000DC17E2524632600122BC6072607B6068
:101D9000072B00DDAFE24A461B99013311601A9A06
:101DA0004946944664444A60BC6098467B60072B71
:101DB00000DDAEE208239C46E14443464E465D1CEE
:101DC000159B0022013B12931C980023199913952F
:101DD00010950836FEF72CFB002800D0BDE15246D6
:101DE000013213004A461360129B7D609C46644496
:101DF0005360BC60072D00DDECE1434602331093D5
:101E00004B461033B1461E004A4626AB1360209B5A
:101E10009C465360109B6444BC607B60072B00DCD5
:101E2000C0E43A000899099803F076FF002801D031
:101E3000FFF761FBBC682DAEB4E4C04688640510B2
:101E4000139B652B94DD002200231C981999FEF743
:101E5000EFFA002800D133E1D44B01343360012381
:101E600073607B68BC6001337B60072B00DD60E33F
:101E70000836249B159A934203DB079BDB0700D4AB
:101E800062E31B9BBA6833601A9B9C4673607B6855
:101E9000624401331400BA607B60072B01DD00F05F
:101EA000EAFC0836159B013B9846002B00DC79E4E0
:101EB00042467B68BE4D102A00DC70E2102291463B
:101EC0002A004546904604E00836103D102D00DCFF
:101ED00062E2424632604A46103401337260BC60AE
:101EE0007B60072BF0DD3A000899099803F014FF96
:101EF000002801D0FFF7FFFABC687B682DAEE4E74D
:101F00000C9B0A9A9B1A9846002B01DCFFF7FFFBFB
:101F100042467B68A64D102A20DD2200444603E09D
:101F2000103C0836102C17DD1021103201333560BB
:101F30007160BA607B60072BF2DD3A00089909985E
:101F400003F0EAFE002801D0FFF7D5FA103CBA688A
:101F50007B682DAE102CE7DCA046140042464444BA
:101F6000013335607260BC607B60072B00DD9BE253
:101F70000836FFF7CCFB56AB9A460E9A0F9B0F2004
:101F8000B446A04651460500149C1540655D1609EF
:101F90001C07013934430D701D092B002500220058
:101FA0001D43F0D1664644468A460E920F9353462F
:101FB000E31A1093FFF722FB3A000899099803F0FF
:101FC000ABFE002801D0FFF796FABC682DAEFFF7F4
:101FD00088FB3A000899099803F09EFE002801D07A
:101FE000FFF789FABC682DAEFFF78CFB07930E9ABA
:101FF0000F9B002B0FD1092A0DD863220E9B3DA900
:1020000030338B5401231CAA94461093E633634467
:102010009A46FFF7F3FA802559460022079BED0008
:102020001D4056AB0A96AA46A3460E9C0F9D1091E2
:102030001E0090460BE00023200029000A22FEF734
:1020400025FA030004000D000B4300D196E10A229B
:10205000002320002900FEF719FA01239C4653466D
:10206000013E30323270E044002BE4D01E9B1B78DE
:102070009845E0D14346FF2BDDD0002D01D1092C3E
:10208000D9D9219B1F99F61A1A00300003F0BEFD22
:1020900000221E9990464B788C465A1E93419C44D0
:1020A00063461E93C7E73A000899099803F034FE87
:1020B000002801D0FFF71FFABC682DAEFFF760FBC8
:1020C0002499002900DCFCE1169B1D00159B9D4214
:1020D00000DD1D00002D0BDD534633607B68641965
:1020E00001337560BC607B60072B00DD55E208366C
:1020F000EB43DB171D40169B5B1B9846002B00DC57
:1021000093E042467B682A4D102A00DCD6E3102279
:1021100091462200444604E00836103C102C00DCB6
:10212000CAE349461032013335607160BA607B60A2
:10213000072BF1DD3A000899099803F0EDFD00281E
:1021400001D0FFF7D8F9BA687B682DAEE5E7002328
:10215000109356AB9A46FFF751FA129B002B00DC06
:1021600052E6102B01DC00F09FFE2100104D1C00F8
:1021700010264A46139B05E00832103C102C00DC68
:1021800053E30133103115605660B9607B60072B53
:10219000F2DD3A000899099803F0BEFD002801D04D
:1021A000FFF7A9F9B9687B682DAAE6E7A4640510D2
:1021B000B864051001210798014200D0E2E55046BD
:1021C00071603060BC607B60072B03DC931C109354
:1021D000103619E63A000899099803F09DFD002889
:1021E00001D0FFF788F97B68BC68013310932DABF1
:1021F0002FAE994608E63A000899099803F08CFD3D
:10220000002801D0FFF777F91CABDB7EBC682DAE50
:10221000FFF754FA3A000899099803F07DFD002869
:1022200001D0FFF768F9BC682DAE169B534410939C
:10223000079B5B0500D55BE3249B159A93424BDB20
:10224000079AD20748D4159910980A00CB1A52441D
:10225000121A1D00934200DD1500002D0CDD109AAE
:10226000641932607A6875600132BC607A60072A4E
:1022700001DD00F0A5FC0836EA43D21715405B1BD0
:102280009846002B01DCFFF78DFA42467B68CF4D64
:10229000102A00DC83E0102291462A004546904631
:1022A00003E00836103D102D76DD424632604A4686
:1022B000103401337260BC607B60072BF1DD3A00A3
:1022C0000899099803F028FD002801D0FFF713F9B9
:1022D000BC687B682DAEE5E71B9A32601A9A94467B
:1022E00072607A6864440132BC607A60072A00DD5B
:1022F00084E20836A7E73A000899099803F00CFD34
:10230000002801D0FFF7F7F82DAABC687B6891463A
:1023100041E53A000899099803F0FEFC002801D035
:10232000FFF7E9F87B68BC6898462DAB994644E511
:10233000012A01D0FFF7BCFA5FE60D9909680E91FA
:1023400000210D920F910122FFF7A6FA0D9A126853
:102350000D910E92D2170F92FFF719F90D9A12688C
:102360000D930E9200220F92FFF7E8FA0D9A126871
:102370000D930E9200220F92FFF70AFB4346B246DE
:102380001593109B0E940F955C469B465346E31A9B
:102390000A9E1093FFF732F94246A84615004246BE
:1023A0004444013335607260BC607B60072B01DC04
:1023B000FFF7F7F935E51C9D199C2A00230028003A
:1023C000210005F0A7FC002801D000F02CFD139B94
:1023D000612B00D1FEE0412B01D100F001FC202354
:1023E000139A07999A43E03319434B461792169173
:1023F000199D013301D100F0B1FC472A01D100F051
:10240000A6FC002D00DA71E31C9B984600231D9367
:102410001193139C662C01D100F06EFC462C01D167
:1024200000F011FD179B0998453B5A4253411A0091
:1024300028AB049325AB039324AB029302234A44B5
:102440000A920192009342462B0000F0D3FE82468E
:10245000672C00D0DFE1079BDB0700D4E3E10A9B98
:1024600053441C000023002240462900FDF7E0FFF2
:102470002300002800D051E1289B3021A34200D343
:102480004CE15A1C28921970289B9C42F9D845E1CE
:10249000079AD2065BD4079A520600D459E30B9AE6
:1024A000DA461A80FFF7D4F93A000899099803F040
:1024B00033FC002801D0FFF71EF8BC682DAEFFF7F3
:1024C00026F9434B01343360012373607B68BC60A1
:1024D00001337B60072B6CDC0836002907D1159B84
:1024E000002B04D1079BDB0701D4FFF75BF91B9B93
:1024F00033601A9B9C4673607B6864440133BC6004
:102500007B60072B00DDFEE232000832002900DA92
:1025100076E351461160159901338C46644451604D
:10252000BC607B60072B00DD7BE408321600FFF700
:1025300039F93A000899099803F0EEFB002801D018
:10254000FEF7D9FF2DAE94E4BC68FFF72BF90B9A88
:10255000DA461A60FFF77CF90D9A0D910020125EA1
:102560000E92D2170F92FFF712F80D990988E6E63E
:102570000D9A0D9312880E9200220F92FFF7DEF94A
:102580000D9A0D9312880E9200220F92FFF700FA17
:102590002D231CAAD376FFF74CFA3A000899099824
:1025A00003F0BAFB002801D0FEF7A5FFBC682DAEF2
:1025B0009EE53A000899099803F0AEFB002801D087
:1025C000FEF799FF2499BC682DAE86E7B864051024
:1025D000A4640510302223AB1A7048325A700224CA
:1025E0004B46079A1443632B00DD43E320231399E2
:1025F000199D9943E2331A43002311933DAB9A4648
:10260000179116920794002D00DA71E21C9B199D18
:10261000984600231D93139B612B00D113E3412B9C
:1026200000D0F6E624AA2900404603F05DFAFF2315
:1026300000229B0504F0B4FD0022002304000D00DD
:10264000FDF7F6FE002800D099E3DE4B109301233E
:102650005B424B445A4698461596CB461892D14653
:10266000464608E000220023013EFDF7E1FE002877
:1026700021D10A9B99460022D34B2000290004F067
:102680008FFD0D00040005F061FB804605F094FB12
:1026900002000B002000290004F0F4FF4B464246E4
:1026A00001330A93109B04009B5C4A460D00137093
:1026B0001296731CD6D14B46159E1593189BD9467E
:1026C0009B464346002218932000C04B2900FDF78B
:1026D000C9FE002800D024E20022BC4B20002900C3
:1026E000FDF7A6FE002803D0189BDB0700D518E2F3
:1026F000129B002B11DB12990A9A8C463021130091
:1027000062440132197001339A42FBD10A9A129B3A
:10271000944601339C4463460A930A9B52469B1A93
:102720001593079B9846169B0793249B1693179B1C
:10273000472B00D1CEE0179B462B00D112E2169B0F
:102740004C225C1E6B469B18179A24941B78002120
:10275000412A02D10F33DBB2013128201CAA121802
:102760001370002C00DA96E329202B231CAA1218E0
:102770001370092C00DD07E31CAB2A229C4662443F
:10278000002906D1624630232A31521813702B22B9
:1027900062443034531C147026AA9B1A159A9C4626
:1027A0001100614420931091012A00DC85E31A9AFC
:1027B000109B9446634410934246854B1A40130085
:1027C000802252001A430792109AD343DB171A4013
:1027D00000230A921893179316931D9B002B00D089
:1027E0005EE100221CABDB7E9146FEF714FF1CABC2
:1027F000DB7E2A000A950D94FFF72BF93A00089921
:10280000099803F089FA002801D0FEF774FE249B92
:10281000BC682DAE17E5139B472B00D01FE6079B26
:10282000DB0700D521E3289B78E7013310931300E1
:10283000129491460C0008334A461560129A494694
:1028400094464A60109A6444BC607A60072A00DDAE
:10285000C0E41E000132109208369946FFF7D4FA00
:102860009933FF33079A01341A4307922378FEF70E
:10287000E7FD4C3BF6E73A000899099803F04CFA5B
:10288000002801D0FEF737FEBC682DAEFFF70AFB2B
:102890000A95062D01D906230A93002200239146AA
:1028A000119318920A9B179216924A4A10930D940C
:1028B00000239246FEF7B4FEA0461400424644446C
:1028C000013335607260BC607B60072B00DDA1E4E2
:1028D0000836AAE4169BDA1C02DB994500DBE6E029
:1028E000139B023B1A00139320239A43179226E767
:1028F0005A46514613921E9A159B91461691219A5B
:102900001899534493468A4622001293324B9846B4
:102910003300109E1799002974D0514600296CD1BC
:10292000012149428C461799E144614417911F994E
:102930005A441960594659607968BA600131796022
:10294000072900DD84E008331299881B494609787D
:102950000D00814200DD0500002D0BDD7968521964
:1029600001311E605D60BA60796007297CDC4946F0
:1029700009780833E843C01705404D1B002D3ADDA8
:102980007968102D54DD40461024109003E0083380
:10299000103D102D4EDD40461032013118605C6054
:1029A000BA6079600729F2DD3A000899099803F0C6
:1029B000B3F9002801D0FEF79EFDBA6879682DAB07
:1029C000E6E7C04688640510000030400000E03FA4
:1029D000FFFBFFFF9C640510B86405103A000899DE
:1029E000099803F099F9002801D0FEF784FD4B46C1
:1029F000BA6819782DAB76188CE7012149428C46CC
:102A0000E24494E751460029F7D1139910968B467A
:102A100031001E004B461E93169B14009A46159BD0
:102A20005344994201D8FFF707FC1093FFF704FCC9
:102A3000D948109010985219013118605D60BA6041
:102A400079600729CADC494609780833761861E7B6
:102A50003A000899099803F05FF9002801D0FEF7C1
:102A60004AFDBA682DAB6FE73A000899099803F060
:102A700053F9002801D0FEF73EFD4B46BA6819789D
:102A80002DAB77E7C54A9246FEF7DAFF5046FEF7D0
:102A90001FFC0100FFF726F9C14A1D92FEF700FE58
:102AA0002D231CAAD37600229146FEF7B6FD159B76
:102AB0001900169B99426FDC42461093D20703D54A
:102AC0001A9A94466344109343465B0503D5169BBC
:102AD000002B00DDE2E0109AD343DB171A40672396
:102AE0000A92139300231893179376E60023119309
:102AF0008022120694461C9B9846199B63441D0035
:102B00002D231D9387E53A000899099803F004F9ED
:102B1000002801D0FEF7EFFC2499BC687B682DAA41
:102B2000F4E4159B109928930A9BC97B013B1A7802
:102B3000914207D130201870289B013B28931A78C6
:102B40009142F8D0392A00D179E10132D2B21A701B
:102B5000E3E5079A920500D4F9E40B9ADA461A7075
:102B6000FEF776FE169B002B00DC87E14B46002B20
:102B700000D04FE14346DB0700D54BE1169B109395
:102B80006623139343465B0500D589E0109AD3432F
:102B9000DB171A400A92A5E71A9A159B94466344DC
:102BA000109367231393169B002BEBDC109B169A54
:102BB0009B1A5A1CD343DB1710921A400A9291E7D2
:102BC0003A000899099803F0A7F8002801D0FEF709
:102BD00092FC159B249ABC689B1A2DAEFFF74CFB08
:102BE000302223AB1A702832F8E43A000899504694
:102BF00003F092F8002801D0FEF786FCFEF734FEC1
:102C00004E42654D103100DBADE01021884604E0F6
:102C10000832103E102E00DCA5E04146103401338E
:102C200015605160BC607B60072BF1DD3A000899AC
:102C3000099803F071F8002801D0FEF75CFCBC682D
:102C40007B682DAAE5E724AA2900404602F04CFF44
:102C5000FF2300229B0504F0A3FA002200230400B6
:102C60000D00FDF7E5FB002801D0012324934D4B17
:102C70001093ECE4591C099801F00EFF82460028DD
:102C800000D152E12023139A199D9A431792079A73
:102C9000E2331A43169211900794B4E46723139316
:102CA00000221E9B189217921B78169AFF2B0ED0AB
:102CB00093420CDA1E98D21A4178002918D0179B3B
:102CC0000130013317931E900B00FF2BF0D11692A9
:102CD000189A179B9446219A63445343109A94463A
:102CE0009C446246D343DB1710921A400A9274E563
:102CF000189901311891D9E728AB049325AB0393B8
:102D000024AB02934B460193032342460093099858
:102D10002B0000F06FFA4B46040082464C440A93A5
:102D200053461B78302B03D0249BE418FFF79AFB03
:102D30000022002340462900FDF77AFB0028F3D14A
:102D400001230A9A9B1A2493E418FFF78BFB4B4646
:102D5000002B00D1ABE00023119354E40023119326
:102D6000063399464FE4A419013315605660BC60E0
:102D70007B60072B00DDB9E00832FFF7CAFB0123B7
:102D80002493094B109362E41CAA372394466344AE
:102D9000B1461E000BE0C046B8640510686405101B
:102DA000A864051074640510886405102E002000C6
:102DB0000A21FDF727FB751E3031297020000A21FA
:102DC000FDF73AFA04000928F0DC1CA92B00372291
:102DD00035008C4630344E46E4B299466244AB1E10
:102DE0001C709A4200D89BE0372363445A1B01238E
:102DF0005B4201E0EC5C013326A9C918CC709A4211
:102E0000F8D11CA98C462A224B4662449446FB1AF0
:102E10006344C1E41A9A169B944663444B4410934E
:102E200066231393AEE6199B002B4FDB1CABDB7EB6
:102E3000139A472A46DC404A9246FEF701FE109A52
:102E4000927A1A7069E428AB049325AB039324AB00
:102E500002934B46019303234246009309982B00AB
:102E600000F0C8F94B4682460A930A9B53441C0063
:102E7000139B462B00D153E7FFF7F4FA4B46002B88
:102E800028D14346DB0725D401230A9365331393E6
:102E9000653B109326E60124169B1CAAE41A2D23F9
:102EA00001301218137064E43300244DC4E400238D
:102EB000119301339946FFF7A6FB4346DB0700D485
:102EC0007AE474E41E4A9246FEF7BAFD2D231CAA4A
:102ED000D376ADE71A9B01331A004A44D343DB177C
:102EE00010921A4066230A921393FBE53A00089960
:102EF000099802F011FF002801D0FEF7FCFABC6827
:102F00007B682DAAFFF705FB0D9B1D681A1D002D80
:102F100001DA01256D4263780D920400FEF790FA04
:102F20001CAA2A239446634436E4402308998A89DC
:102F300013438B81FEF7E8FA6C640510B864051042
:102F400070640510F0B5150002221E4C1F008B891D
:102F5000A54493436A4693814B6E06001993CB892F
:102F600016A8D381CB690C0007934B6A09931AAB5F
:102F7000009304938023DB000293059300230693C0
:102F800001F00AFD2A003B0069463000FEF7D2F945
:102F9000051E0EDA6B469B895B0603D54022A3898A
:102FA0001343A381169801F0F9FC2800064B9D44B9
:102FB000F0BD6946300001F06BF90028EAD0012528
:102FC0006D42E7E794FBFFFF6C040000334B70B5E4
:102FD000050018680C00002802D0836B002B3DD040
:102FE0000C23E25E93B219070DD52169002915D093
:102FF000DA0722D50023A360636900205B42A36146
:10300000002922D070BDD90640D55B0729D421699B
:1030100008231343A3819BB20029E9D1A022802079
:10302000920080001A408242E2D02100280001F084
:10303000EBFCA3892169DA07DCD400229B0700D4CA
:103040006269A26000200029DCD10C22A35E1A066E
:10305000D8D540221343A3810138D3E701F072F998
:10306000BEE7216B00290AD023004033994204D0E7
:10307000280001F0F7F90C23E25E002323632423E8
:103080009A430023216963602160C1E709232B6013
:10309000402301201A43A2814042B3E7F4170020E5
:1030A000F0B5454680465746DE464E464346E0B5B7
:1030B0001B690D6985B00F000020AB4200DA92E079
:1030C00014239C468C446246013DAB000292D61804
:1030D000142242449146994433680192591C4B464C
:1030E0001868FDF71FF8041E46D0029A0023924686
:1030F000002001994A46A446B1465446BB46AA461A
:1031000006000D001F000392634604CC1004000C5F
:103110005843120C5A43C019030CD2182B680004F0
:103120001904090C8919170C000C1204091A120C45
:103130001B0C9B1A0A149B1809041E14090C1B046F
:10314000194302C5A145DFD2039B4E4699461B6831
:10315000644655465F46002B0ED14B46019A043B10
:103160009A4204D306E0043B013D9A4202D2196818
:103170000029F8D043461D613900404602F0D2F9DB
:1031800000282FDB029B01340020A4461900019F78
:103190003B6810C91A04120C10182204120C821A6F
:1031A0001B0C200C1B1A10141B1812041814120CE0
:1031B0001B04134308C78E42EAD2019A6446944620
:1031C000AB006344196800290CD1043B9A4204D334
:1031D00006E0043B013D9A4202D219680029F8D06A
:1031E00043461D61200005B03CBC90469946A2466E
:1031F000AB46F0BDF0B557464E46DE464546E0B517
:1032000016001F00016C9DB0040002960397002970
:1032100008D00123426C93404A608B6001F05EFF4E
:10322000002323643D1E00DAB8E10023299A1360CD
:103230002A00CC4B1A409A4200D1BBE1029E039F68
:103240000022002330003900FDF7F2F8002813D0E7
:103250000123289A13602A9B002B00D1D4E1C24B92
:103260002A9A1360013B9A4650461DB03CBC9046DA
:103270009946A246AB46F0BD1AAB01931BAB009337
:1032800032003B00200002F0F9F92B0D834600D0FC
:10329000ADE11A9B98461B9B43441E00B34BF318A9
:1032A000202B01DC00F095FC4022D31A9D40B04B4E
:1032B0000298F318D840284304F0B8FD0123AD4D1F
:1032C00016934919751E0022AB4B04F0DBF9AB4A8B
:1032D000AB4B03F065FFAB4AAB4B03F03BF806008A
:1032E00028000F0004F068FDA84AA94B03F058FF1E
:1032F00002000B003000390003F02CF806000F002C
:1033000004F024FD00220690002330003900FDF770
:1033100095F800280DD0069B1800994604F04CFD46
:103320003B003200FDF784F8434258414B461B1ADC
:1033300006930123069E0A93162E10D89549F30092
:10334000C91808684968029A039BFDF78BF80028A2
:1033500001D100F044FC0023013E06960A93434647
:103360005D1B002304932B00013B984604D50123E9
:103370005B1B049300239846069B002B00DA89E22E
:103380009C46099300239946E044269B092B00D9CB
:103390003DE10126052B02DD0026043B2693269BFA
:1033A000032B01D100F042FD01DC00F0F8FC269B6C
:1033B000042B01D100F06DFC01230893269B052B03
:1033C00001D000F0F2FC279A069B944663440B93CD
:1033D000013307931F1E00DC01270023079D636450
:1033E0000021172F00DC20E1012204335B001800CC
:1033F000143011000132B842F8D96164200001F0A4
:1034000045FE824620640E2D00D816E11B9B002B42
:1034100000DA21E2069A0E2A00DD1DE25D4BD200A1
:103420009B181A685B6804920593279B002B01DAAE
:1034300000F03AFC029E039F049A059B300039007D
:1034400003F0A4FA04F082FC814604F0B5FC049A6F
:10345000059B03F0A5FE02000B003000390004F0CC
:1034600011F953465D1C4B46524630331370079B8F
:1034700006000F00012B45D00022474B03F090FEC1
:103480000022002306000F00FCF7D2FF002800D026
:1034900068E30222079B5244534402931500A1465D
:1034A0000EE000223C4B03F07BFE002200230600CE
:1034B0000F000135FCF7BCFF002801D000F0C1FC73
:1034C000049A059B3000390003F060FA04F03EFCDA
:1034D000040004F071FC049A059B03F061FE0200F5
:1034E0000B003000390004F0CDF822006B1E3032A2
:1034F0001A70029B06000F00A846AB42D1D14B4682
:10350000A1461C0032003B003000390002F022FFCF
:10351000049A059B06000F00FCF7A4FF00280CD1BD
:10352000049A059B30003900FCF782FF002800D187
:1035300018E34B46DB0700D414E36B1E19785046A2
:1035400007E0984201D100F0FFFC023D29781D0000
:10355000013B1A003929F4D082460291029E0136BD
:103560001670FFE20000F07FA56405103204000031
:1035700012040000000010FE0000F83F61436F637A
:10358000A787D23FB3C8608B288AC63FFB799F507C
:103590001344D33F00650510000024400123299AFD
:1035A0007D006D0813602A00BF4B03951A409A42B4
:1035B00000D043E6BD4B289A1360029B002B0CD130
:1035C0002D030AD12A9B002B01D100F0A7FDB84B97
:1035D0009A4608332A9A136046E62A9B002B02D1AA
:1035E000B44B9A4640E6B34B9A460333F2E73A03AC
:1035F000B14D120B1543B14A29009D181A9B30009A
:103600009846002316935EE6AD4B9A462CE60125BC
:103610000023012201266D422693089207952793E5
:10362000002300216364079B0B93200001F02EFD13
:10363000824620640E2D00D9E8E6002E00D1E5E692
:10364000029A039B069F0E920F93002F00DC51E31A
:103650000F213B000B40DA009A4B9B181D685E68F7
:103660000C950D963D11EB0601D400F006FC964B2F
:103670000D401A6A5B6A0E980F9903F087F90323CD
:10368000109011910293002D18D00C980D992300E1
:1036900001274C4699468C4E2F4206D0029B01339F
:1036A00002933268736803F07BFD6D100836002DBD
:1036B000F2D14B46A1461C000C900D910C9A0D9B2B
:1036C0001098119903F062F90C900D910A9B002B50
:1036D00009D00C980D990022774BFCF7AFFE00281B
:1036E00001D000F07EFC029804F066FB0C9A0D9B62
:1036F00003F056FD754B002202F02CFE744B0500C2
:10370000CE18079B002B00D16EE3069B1893079BF6
:1037100010930C980D9904F019FB1295139606005E
:10372000109D684B6A1ED2009B18303619685A6883
:10373000F3B256460136149115920293179604F08F
:103740003BFB02000B000C980D9903F09BFF149AB1
:10375000159B060008980F00002800D1ABE300205D
:103760005C4903F013F9129A139B03F08BFF524646
:10377000029B0C900D91137032003B00FCF772FE1F
:10378000002801D000F0BAFC32003B0000204A497A
:1037900003F078FF0C9A0D9BFCF750FE002801D037
:1037A00000F0AEFC012D00D177E34A461492424668
:1037B00019925A46179B55440295129410929946B5
:1037C0000C9C0D9DD34612E032003B0000203A498C
:1037D00003F058FF22002B00FCF730FE002801D038
:1037E00000F062FC029BD146534500D14DE300221C
:1037F000394B2000290003F0D3FC0022364B040093
:103800000D003000390003F0CBFC0F00060004F07F
:103810009DFA804604F0D0FA02000B003000390017
:1038200003F030FF01234B449A4643463033DBB26A
:1038300098464B4642461A7022002B0006000F00A5
:10384000FCF7FCFD0028BFD0109B5546DA469B468E
:10385000189B129C069385E1089A002A3ED0269A6E
:10386000012A00DC05E2079B5D1E4B46A94500DAF4
:10387000EAE25D1B079B002B00DA14E39C46049AE6
:10388000E0441700624404920121200001F0C0FCD2
:10389000060026E0049A069BD21A5B429946002352
:1038A0000492099371E5C0460000F07F0F270000E5
:1038B000C8640510D46405100000F03F01FCFFFF50
:1038C000A464051000650510D864051000001C40B4
:1038D0000000C0FC0000E03F000024404D460026F0
:1038E000049F002F0DDD4346002B0ADD3B004745BA
:1038F00000DD91E1049AFF1AD21A04924246D31ACB
:1039000098464B46002B0ED0089B002B05D04B460B
:103910005B1B9946002D00D080E159464A462000A5
:1039200001F03CFD83460121200001F071FC099A61
:103930008146002A00D036E1269B012B00DC52E1B3
:1039400001231F204344184000D12AE120231B1AE1
:10395000042B00DCDCE31C23181A049B3F189C4654
:103960008444634680440493049B002B05DD594640
:103970001A00200001F072FD83464346002B05DD4E
:1039800049464246200001F069FD81460A9B002B12
:1039900079D1079B002B00DCF4E1089B002B00D1C0
:1039A0008FE0002F00DD4FE1099B0496002B00D033
:1039B000CFE1079A53469446013B9C4463460893E3
:1039C0000123029A5D461A405346D046CB460792E1
:1039D0000A9359462800FFF763FB03000990303330
:1039E00031002800029301F09DFD049A070059461A
:1039F000200001F0B1FDC3688146002B00D0CDE06E
:103A00000100280001F08EFD82464946200001F0A9
:103A100065FB5246269B134303D1079B002B00D125
:103A200021E3002F00DA18E2269B1F4303D1079BF6
:103A3000002B00D111E243465F1C5346002B00DDF2
:103A40009EE24346029A1A70089B434500D1A6E2C3
:103A5000002329000A22200001F04AFB049B0500F4
:103A60009E4200D190E0310000230A22200001F0A4
:103A70003FFB002306000A220499200001F038FBD6
:103A8000B8460490A5E74946584601F04BFD00288A
:103A900000DB7EE7069B5946013B06930A22002382
:103AA000200001F025FB089B8346002B00D00FE38C
:103AB0000B9B002B04DC269B022B00DD32E30B9BCF
:103AC0000793079B5746984623005C46B3464E46ED
:103AD000994607E0210000230A22484601F008FB2E
:103AE0002F00040031002000FFF7DAFA534630308F
:103AF0007D1C3870EB1A4345ECDB4B460027B14682
:103B00005E46A3461C00029001225946200001F0A7
:103B1000A5FC4946834601F005FD6B1E1A78002876
:103B200000DC98E0514606E0994200D182E1023D76
:103B30002A781D00013B392AF6D08A4601321A70D4
:103B40004946200001F0CAFA002E0BD0002F05D004
:103B5000B74203D03900200001F0C0FA3100200044
:103B600001F0BCFA5946200001F0B8FA00232B708E
:103B7000069B289A013313602A9B002B01D1FFF783
:103B800073FB1D60FFF770FB310000230A22200049
:103B900001F0AEFAB846060004901AE701239A46EF
:103BA00033E71C20D9E60100200001F0F7FB269B3B
:103BB0008146012B00DCE0E0002309934B461B69A2
:103BC00003339B004B44586801F0D8FA20231B1A9A
:103BD000B7E620220298D31A9840FFF76DFB002326
:103BE0000A93FFF7BCFB029B002B00D0A8E60298CB
:103BF000039900220B0309D1D84B0B4206D0049B3A
:103C000001320133049301239C46E044099B09924D
:103C1000002B00D194E6D1E743466BE62A00310041
:103C2000200001F0BBFB5A4601000600200001F015
:103C3000F9FA59460500200001F050FA4B46AB4610
:103C4000002B00D16FE668E631003A00200001F059
:103C500005FC0600A8E6002808D10299C90700D58E
:103C600060E703E0023D2A781D00013B302AF9D0CD
:103C700066E7169A002A00D199E1B94A944663444E
:103C8000049A984494469C4463464D461700049316
:103C9000FAE501230893279B002B00DCC0E00B937F
:103CA00007931F00FFF799FB079B002B01DDFFF730
:103CB000C1FB00D0B0E0049805990022A94B03F0A5
:103CC0006FFA029A039BFCF7D7FB00230026994664
:103CD00000285FD1534652465D1C31231370069B6A
:103CE000013306934946200001F0F8F9002E00D078
:103CF00034E737E7069B002B00D16AE10E980F9955
:103D00005D420F23984A2B40DB00D3181A685B688A
:103D100003F046FA2D110C900D91002D00D1E9E130
:103D2000022200230127914E02922F4207D0029BCC
:103D3000013302933268736803F032FA01236D1085
:103D40000836002DF1D1002B00D1BFE40C900D916D
:103D5000BCE47168200001F099F931000500336975
:103D60000C319A1C92000C30FDF766F901222900F3
:103D7000200001F073FB04901BE6029B002B00D196
:103D800035E719E7269B022B00DC06E6079B002B94
:103D900000D110E1279B5546DB430693A2E70023A1
:103DA0000893269B022B00D175E700230021636452
:103DB000200001F06BF90023279301330893023BA5
:103DC000824620640B930793FFF720FB029803F0D1
:103DD000F3FF0C9A0D9B03F0E3F9654B002202F010
:103DE000B9FA0500634BCE1800220C980D995D4B73
:103DF00003F048FC2A00330002900391FCF732FBE9
:103E0000002854D18021090673182A0002980399CA
:103E1000FCF714FB002840D0002300269946B9E7A0
:103E20000123012507932793FFF7FAFB002308934B
:103E3000FFF7C9FA069B8A460133069331230B70BC
:103E40007EE645464C468DE6EE1A099BA9469C4601
:103E5000B4446346002509930CE50A9A53469246FA
:103E60004246D946AB46551C002B00DDE0E04346F8
:103E7000029A37001A70049E62E60E9A0F9B109207
:103E8000119302230293FFF7FEFB149BDA46994637
:103E9000199B129C9846109B9B460E9A0F9B029270
:103EA0000393FFF7B3FA049B079A9F1AECE40023ED
:103EB000002699460EE71298139903F071F95346BC
:103EC000029A0C900D911A70109B179D012B27D010
:103ED000109B534402934B46C146A0462C001093BE
:103EE0000022254B3000390003F05AF90F0006007C
:103EF00003F02CFF050003F05FFF0B000200390008
:103F0000300003F0BFFB3035029B25700134060002
:103F10000F00A342E4D1109B4446C8469946029D37
:103F200000220C980D99154B02F014FA32003B0058
:103F3000FCF784FA002800D1A1E0189A6B1E1978CA
:103F400006925046FFF705FB069B82460133069317
:103F50003023020003700293FFF700FB0000F07FA4
:103F6000330400000000144000650510D8640510FB
:103F700000001C400000C0FC000024400000E03FA6
:103F80000A9BD9469A46029BAB463D00392B61D02D
:103F90004246029B370001331370049ED0E50A9B12
:103FA000D9469A46AB463D003700049EACE5362321
:103FB0001A9A9B1A64E649460522200001F098F8F7
:103FC00081460100584601F0ADFA002800DD81E687
:103FD000E0E60E9A0F9B0C920D9302230293FFF7DB
:103FE00075FB079B002B00D1F0E60B9F002F00DC38
:103FF00053E70C980D99069B0022013B18934B4BFD
:1040000003F0CEF805000E0002980C950D960130D5
:1040100003F0D2FE2A00330003F0C2F8444B002222
:1040200002F098F9434B0500CE181097FFF771FB8B
:1040300059460122200001F011FA4946834601F059
:1040400071FA00283CDD029B392B03D0099B3133E8
:1040500002930CE73923424637001370049E39223D
:104060006B1E514667E50A9BD9469A464346AB46C6
:104070005D1C029B392BEDD0002FE7DCF7E60C9A94
:104080000D9B00202C4903F0FDFA32003B00FCF7A9
:10409000E9F9002801D100E71D006B1E1A78302ACB
:1040A000FAD0189B06935DE55546DA46109A4B46C2
:1040B0009346189A4146129C06925046FFF749FAD9
:1040C000002800D0D3E6029BDB0700D4CFE6BAE796
:1040D000002331000A22200001F00AF80B9B0600A1
:1040E000002B01DD07935CE4269B022B1ADC0B9B63
:1040F000079356E402230293FFF7E8FA179DD0E7EF
:10410000189B179D0693029953465046FFF721FAD4
:10411000042B00D128E43C23181A1EE4074B9A46CE
:10412000FFF7A2F80B9B079330E6C046000024403F
:1041300000001C400000C0FC0000E03FC864051007
:10414000F0B5C64600B50C23CA5E804693B20C009B
:10415000190746D480231B0113436268A381002AF8
:104160005FDDA56A002D5FD04246414616680022F9
:104170009BB20A60E169DA0400D57EE001230022E7
:104180004046A847431C55D0A389A56AE1695B074F
:1041900006D56368C01A236B002B01D0E36BC01AED
:1041A000002302004046A847431C4FD0A389364A4B
:1041B00013400022626022691BB2A3812260DB04EB
:1041C00059D44346216B1E6000292DD02300403373
:1041D000994202D0404600F045F9002300202363B5
:1041E00023E02669002E1FD022682660951B00223E
:1041F0009B071DD0A260002D04DC15E036182D1A97
:10420000002D11DD2B003200E1694046676AB84796
:104210000028F3DCA389402201201343A3814042FC
:1042200003E0E26B002A9CDC002004BC9046F0BD59
:104230006269DFE743461B68002BA5D01D2B01D028
:10424000162B1CD1434600201E60EEE743461D6836
:104250000C22A35E1D2DDED80C490122E9408A43C1
:10426000D9D10949626022690B40A3812260DB0435
:10427000A7D5002DA5D12065A3E7206D87E74022B3
:10428000A3891343A381D0E7FFF7FFFF010040207C
:1042900070B505000C00002802D0836B002B16D0EF
:1042A0000C22A35E0026002B0FD0626ED20701D431
:1042B0009B0513D521002800FFF742FF636E06001F
:1042C000DB0702D4A3899B0504D5300070BD00F044
:1042D00039F8E5E7A06D00F065FBF6E7A06D00F0AA
:1042E0005FFBE7E7002310B50400036043608360D1
:1042F00081814366C2810361436183610822002199
:104300005C30FCF72BFF2000064BE4612362064B78
:1043100058306362054BA362054BE36200F03CFB3F
:1043200010BDC046715B0410995B0410D55B04108E
:10433000015C041010B5024900F0FCFA10BDC04643
:10434000D15D041070B50400144D280000F028FB66
:10435000A36B002B1DD1124A0421E263B822920004
:10436000A350B92303229B00E2500833E218043B18
:10437000E25060680022FFF7B5FF01220921A06822
:10438000FFF7B0FF02221221E068FFF7ABFF012325
:10439000A363280000F006FB70BDC0468C17002008
:1043A0003543041010B5024800F0FAFA10BDC046BB
:1043B000A017002010B5024800F0F4FA10BDC04666
:1043C000A0170020F8B50C00060000F04FFE204FAB
:1043D000BB685D6803239D431E4B2C1B9C466444B5
:1043E000240B1D4B013C24039C4207DD00213000BF
:1043F00001F0ACFBBB685B19984204D0300000F0C0
:104400003DFE0020F8BD6142300001F09FFB431CDF
:104410000DD00122BB682D1B15435D600F4B300092
:104420001A68141B1C6000F029FE0120EAE7002135
:10443000300001F08BFBBA68831A0F2BDEDD0849D0
:104440000968401A0549086001210B435360D5E70C
:10445000201C0020EF0F0000FF0F00003417002089
:1044600028200020F8B5CE464746050080B50C1E32
:1044700055D000F0FBFD210008394F6801243800B9
:104480000323A0430A1856689E43B146644EB3689E
:10449000934229D04B465360D3189C463C4242D1AC
:1044A0000F68C91B8B68C019984663465F6808236C
:1044B0009C46B4442740E0456AD04346CC68DC6063
:1044C000A360002F32D1012448440443A0469368DE
:1044D000544C0F18A34200D17FE0D268DA60936099
:1044E00043464B60386025E003004B443C4206D114
:1044F0000A68891A88689B18CA68C260906001229D
:104500001A434A60484AB16012689A4204D8474B3D
:1045100028001968FFF756FF280000F0AFFD0CBC1B
:1045200090469946F8BD5F682740CCD001230343ED
:104530004B6008503E4B98421AD9430A042B33D89B
:104540008209140039323834D200B218083A93681C
:1045500003279A4239D05C68BC43844233D99B68B4
:104560009A42F8D1D368CB608A609960D160D3E772
:10457000C008FF3B8210FF3B93407268C0001343AA
:1045800073608619B368CE608B60B160D960C3E791
:10459000002F41D1030090684B44D2681C43C26095
:1045A00090604C60CB50B7E7142B07D9542B1CD824
:1045B000020B14006F326E34D200C6E71C005C336D
:1045C0005B34DA00C1E71A00CCE70123A410A34052
:1045D0007068034373601300C5E7D9609960CB60CE
:1045E0008B6043464B60386096E7AA2252009342A4
:1045F00005D8C20B140078327734D200A5E70D4AF3
:10460000934205D8820C14007D327C34D2009CE7A2
:10461000FE227E24920098E704434C6010607BE702
:10462000201C0020281C00202C20002064170020C3
:10463000FF01000054050000F0B54546DE46574630
:104640004E46E0B5936883B000900D009046002B75
:104650002DD08B891A0732D50A69002A2FD04246FD
:1046600016689A0737D56B6A00279A46AD4B002427
:104670009946E969002C16D023004C4500D9A94B76
:104680003A000098D047002800DC8FE043469B6842
:104690003F18241A181A4346986008D06B6AE969D3
:1046A0009A46002CE8D1376874680836E2E70020A3
:1046B00003B03CBC90469946A246AB46F0BD2900EB
:1046C0000098FEF783FC002800D028E14246AB8921
:1046D00016689A07C7D4DA0770D400229146802260
:1046E000920000279346AC682868002F53D05A46A2
:1046F000134200D1A8E0A246BC4200D9D7E09022E4
:10470000D20013422ED02969441AA4466869019444
:1047100042001218D00F8218781C52106044924642
:10472000904201D9824602005B0500D4D0E011001E
:10473000009800F0B1F9041E00D1EAE0019A29695D
:10474000FCF77AFCAB89784A134080221343AB8193
:104750005246019B2C61E018BA463C00D31A2860EF
:104760006A61AB6052464946FCF7AAFCAB681C1B69
:10477000AC603C0000272B6853442B6043469B6889
:10478000A1441C1B43469C6000D190E7AC6828689C
:10479000AB89002FABD13268776891460836A4E721
:1047A00029000098FFF774FD00282DD00C22AB5E85
:1047B000402201201343AB81404279E70023994610
:1047C0009A46330000204E460027994625E00028EF
:1047D0002FD0B346BE4200D9BB4628682A696B6910
:1047E000904203D9AA689C18A34563DC5B4500DDB1
:1047F00082E06C6A5246E9690098A047041ED5DD44
:10480000361B0120002ECBD043469B68A2443F1BA1
:104810001C1B43469C6000D149E7002FD7D14B4673
:104820001B689A464B465F6808239C46E144002F6C
:10483000F5D03A000A21504600F0D8FB002859D0A4
:1048400053460130C61AC4E72B69834217D36B69FC
:104850009A46BB4213D8354B38009F4200D93448A2
:104860005146FBF7E9FC53464A464343E969009841
:104870006C6AA047002899DD04003F1B7EE7BC421C
:1048800000D93C0022004946FCF71AFCAB682A68B4
:104890001B1B1219AB602A60002BEED12900009877
:1048A000FFF7F6FC002800D080E73F1B66E73C00DE
:1048B000BA4657E751462200FCF702FC2B68290054
:1048C0001B192B600098FFF7E3FC002898D06DE7D8
:1048D000009800F031FF041E00D039E7009C2969E0
:1048E0002000FFF7BFFD8022AB899343743A1BB2CF
:1048F00022605DE77E1C6CE75A465146FCF7E0FB00
:104900005A46AB685C469B1AAB602B685B442B60D5
:1049100076E70C23009A13600C22AB5E48E7012077
:104920004042C5E600FCFF7F7FFBFFFFFEFFFF7FED
:10493000FFFFFF7FF8B54746CE4680B5B8278046D3
:10494000BF00474489460026002F14D07B68BC680E
:104950005D1E0DD4A389012B07D90E22A35E01335E
:1049600003D021004046C84706436834013DF1D2D8
:104970003F68002FEAD130000CBC90469946F8BD44
:10498000034B1B68586B002800D10248F030704779
:10499000F4170020302000207047C0467047C04602
:1049A0007047C0467047C04670B50C001E000E230D
:1049B000C95E96B0150000290EDA00233360A38982
:1049C0001B0605D480230020DB002B6016B070BDD1
:1049D000402300202B60F9E76A4601F0DDFA002849
:1049E000EBDBF022019B12021340064A8020944622
:1049F00063445A42534133608023DB002B60000143
:104A0000E4E7C04600E0FFFF70B58B8982B0060086
:104A10000C009B0707D52300433323602361012348
:104A2000636102B070BD01AB6A46FFF7BDFF00993C
:104A30000500300000F030F800281ED08022154B11
:104A4000F363A38920601343009A1BB26261019A49
:104A5000A3812061002A02D12B43A381E1E70E2329
:104A6000E15E300001F0ACFA002810D00322A389E7
:104A70009343012213431BB2EEE70C22A35E9A0577
:104A8000CFD40322934302221343A381C3E70C2212
:104A9000A35EE1E735430410F0B557464546DE46D0
:104AA0004E46E0B50D000B3583B00700162D28D813
:104AB000102900D9C1E000F0D9FA102518230220EE
:104AC000CC4EF3181A005C68083A944200D15BE1BE
:104AD000032362689A431300E268A168CA60916088
:104AE0000122E318596838000A435A6000F0C6FAF8
:104AF0002000083003B03CBC90469946A246AB4625
:104B0000F0BD07239D4300D597E0A94200D994E06A
:104B100000F0ACFAF823FF339D4200D859E1680A4F
:104B200000D18EE0042800D934E138239846A80942
:104B300080443930C100AF4E71180839CC68A142A9
:104B400018D0032362689A431300521B0F2A00DD1A
:104B500018E1002AC0DA03239C4608E06246636835
:104B600093435A1B0F2A00DD0CE1002AB4DAE468F3
:104B7000A142F3D1320034690832944267D0032352
:104B8000616899438A460B00491B0F2900DD0DE13E
:104B9000726132610029A3DA974A924500D94AE14D
:104BA000DB08FF3A9910FF3A8A40DB0071689B19D5
:104BB0000A4399687260E360A1609C60CC60012147
:104BC00083109940914248D80A4205D10323984363
:104BD000490004300A42FBD003239846C30099469B
:104BE000B144CC4682466346DC68A44507D1F4E074
:104BF000002A00DB10E1E468A44500D1EDE0424664
:104C0000636893435A1B0F2AF2DD01208046611925
:104C100005436560A068E5680836C560A860404641
:104C2000F160B16010434860CE608E603800E250A1
:104C300000F024FA200008305CE70C2300203B60E1
:104C400058E780213F2389004020984673E70121DF
:104C50007268831099409142B6D90323B4686268A0
:104C60009A439046AA4202D3531B0F2B7CDC634A23
:104C7000634B93461B681268EB18013200D13BE18D
:104C8000604A944663441B0B1B030193019938004F
:104C900000F05CFF03008146013300D1F9E0434698
:104CA000E318834200D9F2E0574A0199924612680C
:104CB0009446524661441160834200D13EE15A4617
:104CC0001268013200D155E14A46D31A59185346A9
:104CD000196007234A46134000D123E10821894681
:104CE0004A49D21A9144CB1A019A38004A44110514
:104CF000090D5B1A19009B4600F028FF431C00D1E8
:104D000034E14B46C01A01235844184353461B68EC
:104D10005B441900534619604B46B3605860B44277
:104D200012D043460F2B00D81CE1072260680C3BD1
:104D30009343063A024005201A436260E21850602D
:104D400090600F2B00D933E1314B1A68914200D9A2
:104D500019600323B46862689A432E4B1868814235
:104D600000D89AE0196098E001222900134311430A
:104D7000651961603800B5606B6000F07FF9200054
:104D80000830B7E64046F5E6DC680230A34200D1C1
:104D9000F0E69DE6142874D9542800D9AFE06E23BC
:104DA0009846280B80446F30C100C4E60123601987
:104DB0001D43656070613061C26082601A005346B5
:104DC0000A4342603800E15000F058F920000830F2
:104DD00090E62B00E808083372E608239B46073B61
:104DE000DC449B46DA4443465246134200D0FAE67E
:104DF0006DE0C046201C0020FF010000282000209C
:104E0000641700200F100000341700200810000065
:104E10005C170020601700200122E3185968380051
:104E20000A435A60E368A268D3609A6000F026F9EA
:104E3000200008305EE65A0A042A39D9142A74D8A8
:104E40005B23984690445C32D20008235B429C4628
:104E5000B218944463469968032399468C4559D007
:104E60004B464A689A43524502D989688C45F7D126
:104E7000CB6872689C466346A160E3609C60CC602E
:104E80009DE65B23984680445C30C10053E6B44203
:104E900074D00323B46862689A43531B954202D8C6
:104EA0000F2B00DD60E7380000F0E8F8002021E675
:104EB0009A093823984690443932D200C5E74B46C8
:104EC0001A68083B013891469A4200D087E0434671
:104ED0000342F4D173688B4373604900994200D94F
:104EE000BBE6002904D1B8E6042294464900E24416
:104EF0000B42F9D0504671E610330193C6E6AA235F
:104F00005B00984224D8DD3B9846E80B804478301B
:104F1000C10010E6434601229B109A4073681A4371
:104F20007260A8E780235B01DEE6542A2FD81A0BB3
:104F30006E23984690446F32D20086E71A0500D05F
:104F4000BDE60120019BB268434403435360FBE686
:104F5000244B984226D87C239846A80C80447D3068
:104F6000C100E8E501234A4653609CE70023012085
:104F70009B46CBE65B464A461A60AAE61A4A019966
:104F800092461268944652466144116097E6AA21FF
:104F900049008A4214D8DA0B772398469044783235
:104FA000D20052E7FE217E2389007F209846C2E589
:104FB000210038000831FFF755FA53461968C3E657
:104FC00008498A4206D89A0C7C23984690447D3240
:104FD000D2003AE7FE227E239200984635E77368B6
:104FE0007BE7C046540500003417002070B5CCB2F2
:104FF000830734D0531E002A1BD00278A24219D056
:10500000032504E0013B14D30278A24212D0013000
:105010002842F7D1032B0ED8002B0AD00278A242E7
:1050200008D0C31802E00278A24203D001308342C4
:10503000F9D1002070BDFF220D062D0C114029432F
:105040000D04084E0D43026807496A405118914308
:105050003142E3D1043B0430032BF4D8DCE71300E6
:10506000D8E7C04680808080FFFEFEFE10B5024873
:10507000FFF796FC10BDC0469017002010B50248FF
:10508000FFF790FC10BDC0469017002070B50400DB
:10509000C06C0D0000280AD0AB00C31818680028A7
:1050A0000FD002681A6000230361C36070BD212223
:1050B0000421200000F04EFEE0640028ECD1002026
:1050C000F4E70126AE40721D92000121200000F09D
:1050D00041FE0028F3D045608660E4E7002906D051
:1050E0004B689A00C36C9B181A680A601960704775
:1050F000F8B5CE4647468146080080B50D000C69DC
:105100001F0000211430036801311E04360C564381
:105110001B0C5343F619370CDB1936041F0C360CE5
:105120001B049B1908C08C42EDDC002F08D0AB6833
:10513000A3420ADD231D9B00EB1801345F602C6144
:1051400028000CBC90469946F8BD6B684846591C2F
:10515000FFF79CFF29002B6980469A1C92000C31B6
:105160000C30FBF769FF6B689A004B46DB6C9B18B1
:105170001A682A601D604546DCE7C0460300020C41
:105180000020002A01D11B0410301A0E01D1083072
:105190001B021A0F01D104301B019A0F01D10230FA
:1051A0009B00002B02DB5B0001D501307047202003
:1051B000FCE7C04603685A0709D00022D90704D487
:1051C0009A071ED501225B0803601000704719047E
:1051D0000022002901D11B0C1032FF21194201D1FC
:1051E00008321B0A190701D104321B09990701D1A2
:1051F00002329B08D90702D45B0806D00132036053
:10520000E3E79B0803600222DFE72022DDE7C046D8
:1052100010B50C000121FFF739FF01234461036140
:1052200010BDC046F0B557464E464546DE46E0B591
:1052300014690E6985B00F001500A64204DA330028
:10524000170026000D001C0033199846BB687968CA
:10525000434500DA0131FFF719FF14220300944699
:1052600063449A4643469B001900514402900391BF
:105270008A4504D25346002204C39942FCD83B001D
:1052800014339C4601931423B2006244A4009C464C
:105290002300AC44634400939C4562D2914608E0ED
:1052A000240C32D104239B46009BDC44DA44634542
:1052B00057D963461C682604360CF1D055460022A7
:1052C0004C46019F02CF28680B041B0C734300045B
:1052D000000C1B18994691442A680B0C100C4A4686
:1052E00049467343120C1B189B1809041A0C090C2D
:1052F0001B040B43AB4608C5BC42E3D85B465A606F
:105300006346A1461C68240CCCD0534600221B687F
:10531000494650461E009146019D2A88360C62433C
:1053200092194A441B0416041B0C3343466803605D
:1053300037043F0CB94608CD120C1B0C63434B4499
:105340009B181A0C834691460430A942E5D85F4663
:105350007B6004239B46009BDC448946DA4463451A
:10536000A7D84346002B0EDD039B043B1A68002A96
:1053700009D1424603E0043B1968002902D1013AF1
:10538000002AF8D19046029B424618001A6105B0E7
:105390003CBC90469946A246AB46F0BDF8B54746A0
:1053A000CE46032380B588460700140013403AD147
:1053B000A410464626D0BD6C002D3DD001234646A4
:1053C0009846002399464346234208D1641019D0D9
:1053D000286800281BD0050043462342F6D02A0047
:1053E00031003800FFF71EFF002E1AD0FA6C7368E8
:1053F00094469B0063441A68641032601E60060085
:10540000002CE5D130000CBC90469946F8BD2A002E
:1054100029003800FFF706FF4B46286003600500AF
:10542000DAE70600D2E70B4A013B9B009A580023BB
:10543000FFF75EFE8046BBE701213800FFF726FE3E
:10544000054B05004361012303610023B864036039
:10545000B4E7C046C865051071020000F0B5DE462D
:1054600057464E464546E0B50D002B6956119B4602
:10547000B3445B465C1CAB6883B00190170049687D
:105480009C4203DD01315B009C42FBDC0198FFF78D
:10549000FDFD030084461433002E06DD0022B1001A
:1054A000591804C39942FCD10B0029692A008E00C7
:1054B0001F211432394096198946002929D020210C
:1054C0004846091A884600271900484613688A4644
:1054D00083403B4308C1434680CADF409642F4D82C
:1054E00053465F60002F01D05C460234634660463D
:1054F000013C1C616B689A00019BDB6C9B181A686D
:105500002A601D6003B03CBC90469946A246AB465B
:10551000F0BD02CA02C39642E8D902CA02C396424B
:10552000F7D8E3E70A69036930B50500981A12D184
:10553000920014351431AB18891801E09D420AD24B
:10554000043B04391C680A689442F7D094428041B5
:1055500001239843013030BDF8B5454657464E46C5
:105560001400DE46E0B50E00250013690A6988467E
:10557000D71A14361435002F16D19B00F218EB18E9
:1055800002E0B24200D86FE0043A1168043B8C4656
:1055900019688C45F5D00AD233002E001D00434611
:1055A0000127A0461C0002E0002FF5DB0027434640
:1055B0005968FFF76BFD434681461B69C7609C46EF
:1055C0009800236982469B0098464F46B244A844FF
:1055D0001437002000E0260004CD340093465946DD
:1055E00008CC09041A04120C1218090C521A190CCE
:1055F0005B461B0CCB1A11145B1812041814120C06
:105600001B04391D13433B600F00A845E3D8A24596
:1056100015D908CC1A04120C121815141B0C5B199E
:1056200012041814120C1B04134308C7A245F0D827
:105630005246961B053EB6080136B6008919043954
:10564000002B07D101235B42984604390B68C44400
:10565000002BF7D04B4662461A6148463CBC904648
:105660009946A246AB46F8BD0021FFF70FFD012386
:105670000361002381464361EFE7C046F0B5012195
:105680001C0083B01500089FFFF700FD2303640092
:1056900006001B0B640D02D08022520313430193BA
:1056A000002D19D068460095FFF784FD002830D101
:1056B000009B019D7361B5616B1E9D410135356194
:1056C000002C14D0194B9C46352364442418181A16
:1056D000099B3C60186019E001A8FFF76BFD019B76
:1056E00020307361012301253361002CEAD1104B76
:1056F0009C46104B6044EB189B00F31838605869C7
:10570000FFF73CFD6D01099B281A1860300003B0BB
:10571000F0BD019D20232A001B1A9A401300C540AA
:10572000009A019513437361C5E7C046CDFBFFFFA7
:10573000CEFBFFFFFFFFFF3FF0B5DE465746454675
:105740004E46E0B5934685B007000D1E00D1A9E096
:105750002E00083EFFF78AFC736803221C00944366
:105760005A460B32B146162A43D81022924600926E
:10577000D34543D8009A31198846944276DAD44A00
:105780009168414500D1B6E04246506801210200CF
:105790008A439446C444624652680A4200D186E075
:1057A000194230D059463800FFF776F98046002874
:1057B0001BD0012372689A43B3180200083A93423F
:1057C00000D125E1221F242A00D931E129680300F4
:1057D000132A00D912E12A001960516859609268B1
:1057E0009A6029003800FEF73DFE3800FFF746FCBE
:1057F00050E007218A4392460092B9D50C233B60C2
:105800000023984646E03368F31A01935B680293DD
:105810000323029A9A431300009AE11802919142DD
:10582000C0DB0198844606008268C3686144D36087
:105830009A60221F08368846242A00D9EFE029689A
:105840003300132A09D981606B68C3601B2A00D911
:1058500004E110300300A968083519606A68029CE9
:105860005A60AA6835009A60019B994653464A4699
:10587000E01A012352681A400F282AD849462243C9
:105880004A60424652681343424653603800FFF76D
:10589000F5FBA846404605B03CBC90469946A2465A
:1058A000AB46F0BD1100FFF7F7F88046F2E70322A0
:1058B00090439446009A02902018904269DB434638
:1058C0004246B046DB6892688044D36004009A6028
:1058D000CCE7544622434C46494662604246514416
:1058E00018434860526808311343424638005360F9
:1058F000FEF7B8FDCAE703225046496810309143CD
:1059000009199446814200DB96E0DB0700D549E7A0
:1059100062463368F31A01935B689343CA18029294
:10592000904200DD78E701988268C3688446D360BE
:105930009A60082262449046221F242A00D9B7E0C8
:1059400029684346132A09D981606B68C3601B2A02
:1059500000D9B2E00300A9681033083519606A68FD
:105960005A60AA689A600198594B020052449A60A2
:1059700011005246029B9A1A01231A434A60416859
:1059800000910B4051460B4343603800FFF776FB14
:1059900080E7194200D005E762463368F31A0193A5
:1059A0005B6803939343029AD1180A1900990292F3
:1059B0008A4200DA30E743464246DB689268019843
:1059C000D3609A608268C3680600D3609A60029BC5
:1059D00084469846221F0836E044242A1FD82968A6
:1059E0003300132A00D838E781606B68C3601B2A34
:1059F00034D80300A968103308352EE701606968C0
:105A000041601B2A35D82A0008330832A968E3E62A
:105A10000322B0465B689343E418A04426E72900BC
:105A20003000FBF74DFB019B3500029C99461DE7BA
:105A30002900FBF745FBD4E65346254AF31893604B
:105A400052460124891A21435960736838001C406A
:105A500014437460FFF712FBA8461BE7A968019B7B
:105A60001961E9685961242A0ED029691833103563
:105A7000F3E6A9688160E968C160242A0ED02A0093
:105A8000103310322969A7E62B69019A936113003C
:105A900069692033D161A9691835DEE62A690100F8
:105AA00002612A006869183248611833A96993E6CF
:105AB00029004046FBF704FB55E7A968019B1961E3
:105AC000E9685961242A05D029691833103545E75A
:105AD000201C00202B69019A93611300696920330F
